:020000040000FA
:100000000C94D5000C94FD000C94FD000C94FD00A4
:100010000C94FD000C94FD000C94FD000C94FD006C
:100020000C94FD000C94FD000C94FD000C94FD005C
:100030000C94FD000C94FD000C94FD000C94FD004C
:100040000C947A040C94FD000C94FD000C94FD00BB
:100050000C94FD000C94FD000C94FD000C94FD002C
:100060000C94C4040C94FD0000407A10F35A00A0D4
:10007000724E18090010A5D4E80000E87648170071
:1000800000E40B54020000CA9A3B000000E1F505B1
:10009000000080969800000040420F000000A086FB
:1000A00001000000102700000000E803000000002D
:1000B0006400000000000A000000000001000000D1
:1000C00000002C76D888DC674F0823DFC1DFAE59EB
:1000D000E1B1B796E5E3E453C63AE651997696E87E
:1000E000E6C28426EB898C9B62ED407C6FFCEFBC02
:1000F0009C9F40F2BAA56FA5F490055A2AF75C932D
:100100006B6CF9676DC11BFCE0E40D47FEF520E662
:10011000B500D0ED902E0300943577050080841E45
:10012000080000204E0A000000C80C333333330FA0
:10013000986E12831141EF8D2114893BE65516CF3D
:10014000FEE6DB18D1844B381BF77C1D901DA4BB49
:10015000E424203284725E228100C9F124ECA1E5FE
:100160003D2700000000250028002B0004040404A3
:100170000404040402020202020203030303030351
:10018000010204081020408001020408102001022E
:10019000040810200000000800020100000304070A
:1001A0000000000000000000E30511241FBECFEF97
:1001B000D8E0DEBFCDBF22E0A2E3B1E001C01D92D6
:1001C000A131B207E1F711E0A0E0B1E0EAE6FBE11E
:1001D00002C005900D92A233B107D9F710E0C5ED2A
:1001E000D0E004C02197FE010E94BB0BC43DD107A3
:1001F000C9F70E9403060C94B30D0C94000090E024
:10020000FC01EC56FE4F2491FC01E058FE4F349166
:10021000FC01E459FE4FE491EE23C9F0222339F0AA
:10022000233001F1A8F4213019F1223029F1F0E056
:10023000EE0FFF1FEE59FE4FA591B4918FB7F894C2
:10024000EC91611126C030953E233C938FBF0895F9
:100250002730A9F02830C9F0243049F78091800078
:100260008F7D03C0809180008F7780938000DFCFE7
:1002700084B58F7784BDDBCF84B58F7DFBCF809134
:10028000B0008F778093B000D2CF8091B0008F7D87
:10029000F9CF3E2BDACF3FB7F8948091F1019091DE
:1002A000F201A091F301B091F40126B5A89B05C01D
:1002B0002F3F19F00196A11DB11D3FBFBA2FA92FE5
:1002C000982F8827BC01CD01620F711D811D911DE2
:1002D00042E0660F771F881F991F4A95D1F708954E
:1002E0008F929F92AF92BF92CF92DF92EF92FF9246
:1002F0004B015C010E944B016B017C010E944B0190
:100300006C197D098E099F09683E7340810591052E
:10031000A8F321E0821A9108A108B10888EEC80E5E
:1003200083E0D81EE11CF11C81149104A104B104E6
:1003300029F7FF90EF90DF90CF90BF90AF909F9004
:100340008F900895089508950895AF92BF92CF9227
:10035000DF92EF92FF920F931F93CF93DF936C0185
:100360007B018B01040F151FEB015E01AE18BF0866
:10037000C017D10759F06991D601ED91FC91019018
:10038000F081E02DC6010995892B79F7C501DF9130
:10039000CF911F910F91FF90EF90DF90CF90BF9082
:1003A000AF90089520917301260F3327331F213218
:1003B0003105ECF42091BC01FC0190E080E0243098
:1003C00069F082E00895A09173012191AC014D5A2A
:1003D0005E4FA40FB52FB11D2C930196861798F38D
:1003E00080917301680F6093730180E0089581E04C
:1003F00008951092BC0181E08093BB011092960198
:1004000061E082E10E94FF0061E083E10E94FF0061
:10041000E9EBF0E080818E7F808380818D7F808317
:1004200088E48093B80085E48093BC000895CF935E
:10043000DF9391E0909352018823B9F0C091B80006
:10044000D091BA008091BC008A7B8093BC0060E0B0
:1004500082E10E94FF0060E083E10E94FF000E94B1
:10046000F901D093BA00C093B800DF91CF910895FD
:100470000895E091EB018091EA01E81730F4F0E093
:10048000EE5CFE4F808190E008958FEF9FEF08951E
:100490009091EB018091EA012FEF3FEF981748F41C
:1004A000E92FF0E0EE5CFE4F208130E09F5F9093FB
:1004B000EB01C90108958091EA019091EB01891B3C
:1004C000990B0895CF92DF92EF92FF920F931F93B3
:1004D000CF93DF937C01CB018A012091C2012223BB
:1004E00089F0EB016B01C40ED51ECC15DD0569F05A
:1004F0006991D701ED91FC910190F081E02DC70148
:100500000995F3CF642F0E94D201C801DF91CF91EA
:100510001F910F91FF90EF90DF90CF900895CF93B0
:10052000DF931F92CDB7DEB769832091C2012223EA
:10053000F9F02091E801203258F021E030E0FC0190
:100540003383228390E080E00F90DF91CF91089574
:100550008091E901E82FF0E0ED53FE4F99819083FF
:100560008F5F8093E9018093E80181E090E0ECCF18
:1005700061E0CE0101960E94D201F7CFCF92DF92C7
:10058000EF92FF920F931F93CF93DF93FC01C481EF
:1005900021E02093C201C093E3011092E90110927F
:1005A000E8018385682B85EF91E00E948F02D0914E
:1005B000E801D13208F092C00E944B016B017C012E
:1005C0008091BC01811165C082E08093BC0181E013
:1005D0008093BB018FEF8093BA011092B901D09341
:1005E000B801A3ECB1E0E8E9F1E080E0D81385C000
:1005F0001092970180919701CC0FC82BC09397015F
:1006000080919601813009F07CC0109296010E9481
:100610004B016B017C01809197018093BB0080911D
:10062000BE019091BF01A091C001B091C101892B81
:100630008A2B8B2B99F00E944B010091BE011091E7
:10064000BF012091C0013091C1016C197D098E0953
:100650009F090617170728073907E0F18091BC00AA
:1006600083FDD9CF85EC8093BC000E944B016B01C8
:100670007C018091BC01823009F445C08091BA01AF
:100680008F3F61F18091BA01803241F18091BA01CE
:1006900025C08091BE019091BF01A091C001B09191
:1006A000C101892B8A2B8B2B09F48ACF0E944B0125
:1006B0000091BE011091BF012091C0013091C10194
:1006C0006C197D098E099F09061717072807390736
:1006D00008F076CF8091BD010E9417021092E901C7
:1006E0001092E8011092C201DF91CF911F910F91FA
:1006F000FF90EF90DF90CF9008959D9191938F5F41
:1007000075CF85EEB0CF8091BE019091BF01A091D1
:10071000C001B091C101892B8A2B8B2B09F4A9CF81
:100720000E944B010091BE011091BF012091C001B8
:100730003091C1016C197D098E099F0906171707B1
:100740002807390708F095CFC5CF90E080E00895DD
:100750000F931F93CF93DF93EC01888199810097CA
:1007600059F02A813B812617370730F081E0DF916D
:10077000CF911F910F9108958B016F5F7F4F0E9462
:10078000E60C009759F0998388831B830A832C8198
:100790003D81232B59F7FC011082E8CF80E0E7CFA1
:1007A0000F931F93CF938C01C62F0E94BE026C2F14
:1007B0006460C8010E94BE026C2F6B7FC8010E945A
:1007C000BE0283EC90E00197F1F7CF911F910F915A
:1007D00008950F931F93CF93DF938C01D62FC42FCF
:1007E000607F642B0E94D00380E1D89FB001112468
:1007F0006C2BC801DF91CF911F910F910C94D00306
:10080000CF93DF93CDB7DEB728970FB6F894DEBF4E
:100810000FBECDBF98E0E6E0F1E0DE011196019059
:100820000D929A95E1F790910902981708F48FEFCD
:1008300090E0880F991F21E030E02C0F3D1F820FC0
:10084000931FFC016081606840E081E092E028969F
:100850000FB6F894DEBF0FBECDBFDF91CF910C94E1
:10086000E90340E061E081E092E00E94E9038BE36C
:100870009FE10197F1F7089541E00E94E90381E0CB
:1008800090E0089585ED8093BC008091BE01909129
:10089000BF01A091C001B091C1010796A11DB11D7A
:1008A00023E0B695A795979587952A95D1F720913E
:1008B000BC0024FD03C01092BC0108954091BE010C
:1008C0005091BF016091C0017091C101452B462B31
:1008D000472B69F30097A105B10541F02AE22A955B
:1008E000F1F700C00197A109B109E1CF8091BD01E5
:1008F0000C9417021F920F920FB60F9211242F9390
:100900003F938F939F93AF93BF938091ED0190910D
:10091000EE01A091EF01B091F0013091EC0123E0E4
:10092000230F2D3758F50196A11DB11D2093EC0121
:100930008093ED019093EE01A093EF01B093F0014D
:100940008091F1019091F201A091F301B091F40135
:100950000196A11DB11D8093F1019093F201A09326
:10096000F301B093F401BF91AF919F918F913F91AB
:100970002F910F900FBE0F901F90189526E8230F10
:100980000296A11DB11DD2CF1F920F920FB60F92EA
:1009900011242F933F934F935F936F937F938F9384
:1009A0009F93AF93BF93EF93FF938091B900887F9C
:1009B000803609F44AC0F0F5883209F4A7C018F56A
:1009C000803109F49BC0B8F4882309F4F9C0883059
:1009D00009F494C0FF91EF91BF91AF919F918F91D6
:1009E0007F916F915F914F913F912F910F900FBE2B
:1009F0000F901F901895883109F488C0803251F704
:100A00008093BA0114C0803409F49DC040F480334F
:100A1000B9F38833F9F68093BA0185ECB0C080351C
:100A200009F485C0883509F496C0883499F60E9487
:100A30004204D0CF883909F48CC038F5883729F0C2
:100A400050F4883611F0803729F683E08093BC019A
:100A50001092950157C0883809F47BC0803919F08D
:100A6000803809F0B7CF80919501803208F071C0CD
:100A7000E091950181E08E0F809395018091BB00FC
:100A8000F0E0EB58FE4F80833DC0803B39F0E0F44E
:100A9000803A09F479C0883A09F09CCF84E08093C9
:100AA000BC011092740110927301E091E601F09183
:100AB000E70109958091730181110FC081E0809356
:100AC00073011092530109C0803C09F4A6CF883C01
:100AD00009F4A3CF883B09F07DCFE091740181E058
:100AE0008E0F80937401F0E0ED5AFE4F8081809369
:100AF000BB00909174018091730129C0809197018E
:100B00008093BB0085EC8093BC0064CF9091B901C9
:100B10008091B801981758F5E091B90181E08E0FE6
:100B20008093B901F0E0E856FE4F8081E9CFE09173
:100B3000B90181E08E0F8093B9018091BB00F0E094
:100B4000E856FE4F80839091B9018091B8019817C3
:100B5000C8F285E8D8CFE091B90181E08E0F80938B
:100B6000B9018091BB00F0E0E856FE4F8083809190
:100B7000BB0181115CCF81E08093960184EA809370
:100B8000BC001092BC0126CF85EC8093BC00109273
:100B9000BC0180919501803230F4E0919501F0E044
:100BA000EB58FE4F10826091950170E0E091E401F6
:100BB000F091E50185E791E00995109295010ACF42
:100BC0001092BA0134CFE5EFF1E01382128288EE81
:100BD00093E0A0E0B0E084839583A683B78382E1AD
:100BE00091E091838083E1E0F2E01382128284E25B
:100BF00091E09183808387E2848380E1818782E032
:100C0000828713860895CF93DF93CDB7DEB7AD9774
:100C10000FB6F894DEBF0FBECDBF789484B5826066
:100C200084BD84B5816084BD85B5826085BD85B590
:100C3000816085BD80916E00816080936E0010920E
:100C40008100809181008260809381008091810089
:100C5000816080938100809180008160809380001A
:100C60008091B10084608093B1008091B000816078
:100C70008093B00080917A00846080937A008091A4
:100C80007A00826080937A0080917A0081608093FC
:100C90007A0080917A00806880937A001092C10077
:100CA0001092EB011092EA011092E9011092E80112
:100CB0000E94F90182EA91E09093E7018093E601B6
:100CC00083EA91E09093E5018093E401109206029B
:100CD00080910B02823018F098E090930602809386
:100CE000090262E370E080E090E00E947001609190
:100CF0000C0281E092E00E94BE0268EE73E080E0A8
:100D000090E00E94700160E381E092E00E94D003D5
:100D10000BE416E4C8010197F1F760E381E092E08B
:100D20000E94D003C8010197F1F760E381E092E0EF
:100D30000E94D00383E592E00197F1F760E281E041
:100D400092E00E94D00360910602606240E081E080
:100D500092E00E94E90384E08093070240E06CE0A7
:100D600081E092E00E94E9030E94310482E08093D6
:100D7000080240E066E081E092E00E94E90340E082
:100D800062E081E092E00E94E9030BE31FE1C80109
:100D90000197F1F788E080930C0260E081E092E037
:100DA0000E94BE020E94310440E062E081E092E0D5
:100DB0000E94E903C8010197F1F780E00E94000456
:100DC00045E050E06CE271E081E092E00E94A50114
:100DD00080E4B82E90E0C92E90E0D92E19A618A66E
:100DE0001BA61AA61DA61CA670E060E0CE01889680
:100DF0000E94A80328A539A581119CC021153105A1
:100E000019F0C9010E945D0C19A618A61DA61CA602
:100E10001BA61AA6B0927C0080917A008064809311
:100E20007A0080917A0086FDFCCF60917800709105
:100E300079001BA21AA21DA21CA21FA21EA2072E8D
:100E4000000C880B990B0E94190A20E030E040EA60
:100E50005BE30E94540A2AE037ED43E25CE30E9420
:100E6000490B8E010F5F1F4F22E044E00E94C20732
:100E70007C01009709F46DC0FC0101900020E9F7A6
:100E800031978F01081B190BB801CE0182960E9481
:100E9000A8032AA13BA1811155C02115310519F0E4
:100EA000C9010E945D0C1BA21AA21FA21EA21DA2B4
:100EB0001CA288A599A5009709F453C06AA17BA13B
:100EC0006115710509F44BC04AA55BA52EA13FA190
:100ED0004217530708F443C00E94AC0D8EA19FA196
:100EE0009DA78CA71FA21EA28AA19BA1009711F00B
:100EF0000E945D0C81E00E9400044CA55DA568A5E0
:100F000079A581E092E00E94A50168EE73E080E09F
:100F100090E00E9470010E94310488A599A5009775
:100F200011F00E945D0CC114D10409F457CF0E9446
:100F3000000054CF1DA61CA661E371E0C9010E9408
:100F4000AC0D68CF1FA30EA3B701C9010E94AC0D61
:100F5000B0CF8AA19BA1009709F0A3CFA4CF0E9494
:100F60005D0C8AA19BA199A788A78CA19DA19BA795
:100F70008AA78EA19FA19DA78CA71BA21AA21DA222
:100F80001CA2B0CFEF920F931F93CF93DF93E80192
:100F900034E047FD34E1042E000C550B57FF03C02D
:100FA000519541955109E32E022F242FAE010E9445
:100FB000E007CE01DF91CF911F910F91EF9008953F
:100FC000A9E0B0E0E6EEF7E00C94180B6A01F22E0F
:100FD000B02E102FFBE3AF2EA01608F41BE31F5F0B
:100FE000012F27E0AE014F5F5F4F0E943F09BC0118
:100FF0008981982F9970913009F43FC09BE2E1FC00
:1010000004C09E2D9170E0FC3AC05E2D5071E82F17
:10101000E87083FF46C084E0911101C083E0EF2DAA
:10102000E81B8F1508F0E0E0D6018E2F20E2552353
:1010300051F1992329F0D6019C93C60101966C01C8
:1010400096012D5F3F4FE2FE24C08EE4D6018C93C3
:1010500091E411969C93119712968C93D9018E2F3F
:1010600090E281111BC0E20FF32FF11D10828EEF71
:101070009FEF2996ECE00C94340B9DE2C6CF90E2F2
:10108000C4CF2D9381508111FCCFCE0ED11CE0E056
:10109000D0CF8EE6D6018C9391E6DBCF9D93815025
:1010A000E0CF482F447082FF3DC084E0911101C021
:1010B00083E08F1510F4EF2DE81BD6018E2F20E270
:1010C000552309F1992329F0D6019C93C601019675
:1010D0006C0196012D5F3F4FE2FE1BC089E4D601F3
:1010E0008C938EE411968C93119786E412968C93D0
:1010F000D9018E2F90E2882309F4B5CF9D938150BA
:10110000FACF2D9381508111FCCFCE0ED11CE0E09F
:10111000D9CF89E6D6018C938EE611968C931197E0
:1011200086E6E4CF9B0177FF02C030E020E0A1E03B
:10113000B0E0911102C0B0E0A0E0F9013196AE0F2D
:10114000BF1F8B2C912CBB2009F461C05401EFEF21
:10115000AE1ABE0AAA0DBB1DFA161B0619F014F032
:101160004F2D4A1B511188C0E3FC59C07601A42FB2
:10117000B0E2A1114FC0C40ED11C992309F45BC089
:1011800040E0D6011196F60190836D01552309F4D4
:1011900048C0012F060F9A81582F507184FF03C059
:1011A000913309F4015010160CF047C0093008F0D3
:1011B00008E0EEE2FE2E5B01A01AB10885019194D1
:1011C000819491082F3F320729F4D601FC92F60151
:1011D00031966F016217730794F1021713077CF5BC
:1011E000DB01A21BB30BAA24A394B12CAC0EBD1E31
:1011F000AA0DBB1D11968C9121503109D601119673
:1012000028153905F4F0F60180836D01DBCFB12C90
:10121000A12CA0CFF701B1937F01A150AACF9111CA
:10122000B0CFD601942F50E302C05D93915091113D
:10123000FCCFC40ED11C40E0ACCF01E0BACF80E3BC
:10124000DBCF6217730731F4963388F4953311F4CA
:10125000552369F0F6018083FD01842F90E281110E
:1012600008C0A40FB11D1C9290E080E002CF81E382
:10127000F1CF91938150F3CF911183CF8ACF283052
:1012800008F027E03327DA01990F311D87FD9160BF
:1012900000966105710539F432602E5F3D9330E3AD
:1012A0002A95E1F708959F3F30F080387105610578
:1012B00009F03C5F3C5F3D93913008F08068911DE0
:1012C000DF93CF931F930F93FF92EF92192F987F85
:1012D0009695E92F96959695E90FFF27EE53FF4FC8
:1012E00099273327EE24FF24A701E70105900894EE
:1012F000079428F4360FE71EF81E491F511D660F8C
:10130000771F881F991F0694A1F70590079428F46A
:10131000E70EF81E491F561FC11D770F881F991F22
:10132000661F0694A1F70590079428F4F80E491F4C
:10133000561FC71FD11D880F991F661F771F069460
:10134000A1F70590079420F4490F561FC71FD81F17
:10135000990F661F771F881F0694A9F7849110952F
:10136000177041F0D695C79557954795F794E79430
:101370001A95C1F7E8E6F0E068941590159135915B
:101380006591959105907FE27395E118F10A430B01
:10139000560BC90BD009C0F7E10CF11E431F561FB5
:1013A000C91FD01D7EF4703311F48A95E6CFE894FE
:1013B000015030F0080F0AF40027021708F4202F1C
:1013C0002395022F7A3328F079E37D932A95E9F764
:1013D00010C07D932A9589F6069497956795379561
:1013E00017951794E118F10A430B560BC90BD00956
:1013F00098F023957E9173957A3308F070E37C938F
:101400002013B8F77E9170617D9330F0839571E37E
:101410007D9370E32A95E1F71124EF90FF900F91EF
:101420001F91CF91DF91992787FD90950895E894BA
:1014300009C097FB3EF490958095709561957F4F1C
:101440008F4F9F4F9923A9F0F92F96E9BB279395CA
:10145000F695879577956795B795F111F8CFFAF4DA
:10146000BB0F11F460FF1BC06F5F7F4F8F4F9F4F0B
:1014700016C0882311F096E911C0772321F09EE869
:10148000872F762F05C0662371F096E8862F70E0CF
:1014900060E02AF09A95660F771F881FDAF7880FA9
:1014A0009695879597F908950E94670A0C94D80A33
:1014B0000E94CA0A38F00E94D10A20F0952311F048
:1014C0000C94C10A0C94C70A11240C940C0B0E94B2
:1014D000E90A70F3959FC1F3950F50E0551F629F85
:1014E000F001729FBB27F00DB11D639FAA27F00D7D
:1014F000B11DAA1F649F6627B00DA11D661F829FA4
:101500002227B00DA11D621F739FB00DA11D621F88
:10151000839FA00D611D221F749F3327A00D611DA5
:10152000231F849F600D211D822F762F6A2F112487
:101530009F5750409AF0F1F088234AF0EE0FFF1FBA
:10154000BB1F661F771F881F91505040A9F79E3F11
:10155000510580F00C94C10A0C940C0B5F3FE4F32E
:10156000983ED4F3869577956795B795F795E79567
:101570009F5FC1F7FE2B880F911D9695879597F970
:10158000089597F99F6780E870E060E008959FEF05
:1015900080EC089500240A9416161706180609060A
:1015A000089500240A9412161306140605060895D9
:1015B000092E0394000C11F4882352F0BB0F40F461
:1015C000BF2B11F460FF04C06F5F7F4F8F4F9F4FA1
:1015D000089557FD9058440F551F59F05F3F71F023
:1015E0004795880F97FB991F61F09F3F79F087958A
:1015F0000895121613061406551FF2CF4695F1DF13
:1016000008C0161617061806991FF1CF86957105A2
:10161000610508940895E894BB2766277727CB01D6
:1016200097F908952F923F924F925F926F927F9217
:101630008F929F92AF92BF92CF92DF92EF92FF92E2
:101640000F931F93CF93DF93CDB7DEB7CA1BDB0B8E
:101650000FB6F894DEBF0FBECDBF09942A88398833
:1016600048885F846E847D848C849B84AA84B9843A
:10167000C884DF80EE80FD800C811B81AA81B98146
:10168000CE0FD11D0FB6F894DEBF0FBECDBFED015A
:1016900008950E945D0B0C94D80A0E94D10A58F05C
:1016A0000E94CA0A40F029F45F3F29F00C94C10A55
:1016B00051110C940C0B0C94C70A0E94E90A68F3B0
:1016C0009923B1F3552391F3951B550BBB27AA27FB
:1016D00062177307840738F09F5F5F4F220F331F35
:1016E000441FAA1FA9F335D00E2E3AF0E0E832D0FD
:1016F00091505040E695001CCAF72BD0FE2F29D000
:10170000660F771F881FBB1F261737074807AB07D1
:10171000B0E809F0BB0B802DBF01FF2793585F4F46
:101720003AF09E3F510578F00C94C10A0C940C0BD2
:101730005F3FE4F3983ED4F3869577956795B79528
:10174000F7959F5FC9F7880F911D9695879597F933
:101750000895E1E0660F771F881FBB1F62177307AC
:101760008407BA0720F0621B730B840BBA0BEE1FC1
:1017700088F7E0950895EE0FFF1F0590F491E02D96
:1017800009940F931F93CF93DF938230910510F448
:1017900082E090E0E0910F02F091100230E020E052
:1017A000B0E0A0E0309799F42115310509F44AC062
:1017B000281B390B24303105D8F58A819B816115AE
:1017C000710589F1FB0193838283FE0111C0408181
:1017D00051810281138148175907E0F048175907D2
:1017E00099F4109761F012960C93129713961C932C
:1017F0003296CF01DF91CF911F910F910895009301
:101800000F0210931002F4CF2115310551F0421749
:10181000530738F0A901DB019A01BD01DF01F8018E
:10182000C1CFEF01F9CF9093100280930F02CDCF7B
:10183000FE01E20FF31F8193919322503109398306
:101840002883D7CF20910D0230910E02232B41F433
:10185000209102013091030130930E0220930D027A
:1018600020910001309101012115310541F42DB77E
:101870003EB74091040150910501241B350BE091C6
:101880000D02F0910E02E217F307A0F42E1B3F0B9E
:101890002817390778F0AC014E5F5F4F24173507E2
:1018A00048F04E0F5F1F50930E0240930D0281933C
:1018B00091939FCFF0E0E0E09CCFCF93DF93009730
:1018C000E9F0FC01329713821282A0910F02B091CD
:1018D0001002ED0130E020E01097A1F42081318169
:1018E000820F931F20910D0230910E0228173907A5
:1018F00009F061C0F0930E02E0930D02DF91CF91E9
:101900000895EA01CE17DF07E8F54A815B819E0161
:1019100041155105B1F7E901FB83EA8349915991DA
:10192000C40FD51FEC17FD0761F4808191810296E9
:10193000840F951FE90199838883828193819B831A
:101940008A83F0E0E0E012968D919C9113970097C6
:10195000B9F52D913C911197CD010296820F931FFD
:1019600020910D0230910E022817390739F6309771
:1019700051F51092100210920F02B0930E02A09334
:101980000D02BCCFD383C28340815181840F951F48
:10199000C817D90761F44E5F5F4F88819981480F5E
:1019A000591F518340838A819B81938382832115B0
:1019B000310509F0B0CFF0931002E0930F029ECFF3
:1019C000FD01DC01C0CF13821282D7CFB0E0A0E0CE
:1019D000ECEEFCE00C94140B8C01009751F4CB015D
:1019E0000E94C10B8C01C801CDB7DEB7E0E10C94B9
:1019F000300BFC01E60FF71F9C0122503109E21762
:101A0000F30708F49DC0D901CD91DC911197C61759
:101A1000D70798F0C530D10530F3CE01049786176B
:101A2000970708F3C61BD70B2297C193D1936D93E9
:101A30007C93CF010E945D0CD6CF5B01AC1ABD0A2E
:101A40004C018C0E9D1EA0910F02B0911002512CE2
:101A5000412CF12CE12C109731F580910D029091E1
:101A60000E028815990509F05CC04616570608F065
:101A700058C08091000190910101009741F48DB709
:101A80009EB74091040150910501841B950BE81706
:101A9000F90708F055C0F0930E02E0930D02F9012A
:101AA00071836083A0CF8D919C91119712966C9059
:101AB000129713967C901397A815B90559F56C01E8
:101AC00042E0C40ED11CCA14DB0420F1AC014A1957
:101AD0005B09DA011296159780F062827382518356
:101AE0004083D9016D937C93E114F10471F0D70127
:101AF0001396FC93EE93129776CF22968C0F9D1F30
:101B0000F90191838083F301EFCFF0931002E0930A
:101B10000F0269CF4816590608F42C017D01D30144
:101B20009ACFCB010E94C10B7C01009749F0AE0116
:101B3000B8010E94A30DC8010E945D0C870153CF1C
:101B400010E000E050CFFB01DC0102C001900D92DB
:101B500041505040D8F70895FB01DC0101900D92EF
:101B60000020E1F70895F894FFCF000011028000F3
:101B70000000400014005400000000008F026202C8
:101B8000A50338025B0248023902000000003C0451
:0C1B9000A501A503A40148454C4C4F00E2
:107E0000112484B714BE81FFF0D085E080938100F7
:107E100082E08093C00088E18093C10086E0809377
:107E2000C20080E18093C4008EE0C9D0259A86E02C
:107E300020E33CEF91E0309385002093840096BBD3
:107E4000B09BFECF1D9AA8958150A9F7CC24DD24C4
:107E500088248394B5E0AB2EA1E19A2EF3E0BF2EE7
:107E6000A2D0813461F49FD0082FAFD0023811F036
:107E7000013811F484E001C083E08DD089C08234E0
:107E800011F484E103C0853419F485E0A6D080C0E4
:107E9000853579F488D0E82EFF2485D0082F10E0AE
:107EA000102F00270E291F29000F111F8ED06801E7
:107EB0006FC0863521F484E090D080E0DECF843638
:107EC00009F040C070D06FD0082F6DD080E0C81688
:107ED00080E7D80618F4F601B7BEE895C0E0D1E017
:107EE00062D089930C17E1F7F0E0CF16F0E7DF06D8
:107EF00018F0F601B7BEE89568D007B600FCFDCFD4
:107F0000A601A0E0B1E02C9130E011968C91119780
:107F100090E0982F8827822B932B1296FA010C0160
:107F200087BEE89511244E5F5F4FF1E0A038BF0790
:107F300051F7F601A7BEE89507B600FCFDCF97BE46
:107F4000E89526C08437B1F42ED02DD0F82E2BD052
:107F50003CD0F601EF2C8F010F5F1F4F84911BD097
:107F6000EA94F801C1F70894C11CD11CFA94CF0C13
:107F7000D11C0EC0853739F428D08EE10CD085E9AC
:107F80000AD08FE07ACF813511F488E018D01DD067
:107F900080E101D065CF982F8091C00085FFFCCF94
:107FA0009093C60008958091C00087FFFCCF809118
:107FB000C00084FD01C0A8958091C6000895E0E648
:107FC000F0E098E1908380830895EDDF803219F02E
:107FD00088E0F5DFFFCF84E1DECF1F93182FE3DFCA
:107FE0001150E9F7F2DF1F91089580E0E8DFEE27F6
:047FF000FF270994CA
:027FFE00040479
:00000001FF
