:020000040000FA
:100000000C9458000C9480000C9480000C94800098
:100010000C9480000C9480000C9480000C94800060
:100020000C9480000C9480000C9480000C94800050
:100030000C9480000C9480000C9480000C94800040
:100040000C94CC030C9480000C9480000C948000E1
:100050000C9480000C9480000C9480000C94800020
:100060000C9416040C948000000000002500280069
:100070002B00040404040404040402020202020229
:10008000030303030303010204081020408001025C
:1000900004081020010204081020000000080002DB
:1000A0000100000304070000000000000000350507
:1000B00011241FBECFEFD8E0DEBFCDBF11E0A0E01E
:1000C000B1E0E0EBFCE002C005900D92A233B10775
:1000D000D9F722E0A2E3B1E001C01D92AD30B20732
:1000E000E1F710E0C8E5D0E004C02197FE010E94CE
:1000F0005006C735D107C9F70E9455050C9456061E
:100100000C94000090E0FC01E656FF4F2491FC01A6
:10011000EA57FF4F3491FC01EE58FF4FE491EE2374
:10012000C9F0222339F0233001F1A8F4213019F16C
:10013000223029F1F0E0EE0FFF1FE859FF4FA591A3
:10014000B4918FB7F894EC91611126C030953E239D
:100150003C938FBF08952730A9F02830C9F0243090
:1001600049F7809180008F7D03C0809180008F7758
:1001700080938000DFCF84B58F7784BDDBCF84B5DB
:100180008F7DFBCF8091B0008F778093B000D2CF6E
:100190008091B0008F7DF9CF3E2BDACF3FB7F89436
:1001A0008091F1019091F201A091F301B091F401DD
:1001B00026B5A89B05C02F3F19F00196A11DB11DC2
:1001C0003FBFBA2FA92F982F8827BC01CD01620FFE
:1001D000711D811D911D42E0660F771F881F991FB9
:1001E0004A95D1F708958F929F92AF92BF92CF9286
:1001F000DF92EF92FF924B015C010E94CE006B01F7
:100200007C010E94CE006C197D098E099F09683E11
:10021000734081059105A8F321E0821A9108A10895
:10022000B10888EEC80E83E0D81EE11CF11C8114D1
:100230009104A104B10429F7FF90EF90DF90CF90D3
:10024000BF90AF909F908F90089508950895AF92BA
:10025000BF92CF92DF92EF92FF920F931F93CF93B3
:10026000DF936C017B018B01040F151FEB015E0115
:10027000AE18BF08C017D10759F06991D601ED91AA
:10028000FC910190F081E02DC6010995892B79F749
:10029000C501DF91CF911F910F91FF90EF90DF90FB
:1002A000CF90BF90AF900895089520917301260FCD
:1002B0003327331F21323105ECF42091BC01FC01BE
:1002C00090E080E0243069F082E00895A09173010D
:1002D0002191AC014D5A5E4FA40FB52FB11D2C9347
:1002E0000196861798F380917301680F60937301EC
:1002F00080E0089581E008951092BC0181E0809330
:10030000BB011092960161E082E10E94820061E0EF
:1003100083E10E948200E9EBF0E080818E7F8083A0
:1003200080818D7F808388E48093B80085E480930A
:10033000BC000895CF93DF9391E0909352018823FE
:10034000B9F0C091B800D091BA008091BC008A7B0E
:100350008093BC0060E082E10E94820060E083E163
:100360000E9482000E947C01D093BA00C093B80022
:10037000DF91CF9108950895E091EB018091EA011A
:10038000E81730F4F0E0EE5CFE4F808190E00895D5
:100390008FEF9FEF08959091EB018091EA012FEF8D
:1003A0003FEF981748F4E92FF0E0EE5CFE4F208114
:1003B00030E09F5F9093EB01C90108958091EA01BD
:1003C0009091EB01891B990B0895CF92DF92EF92E8
:1003D000FF920F931F93CF93DF937C01CB018A0190
:1003E0002091C201222389F0EB016B01C40ED51EBE
:1003F000CC15DD0569F06991D701ED91FC91019073
:10040000F081E02DC7010995F3CF642F0E945501BB
:10041000C801DF91CF911F910F91FF90EF90DF9076
:10042000CF900895CF93DF931F92CDB7DEB7698346
:100430002091C2012223F9F02091E801203258F0E6
:1004400021E030E0FC013383228390E080E00F90D4
:10045000DF91CF9108958091E901E82FF0E0ED530D
:10046000FE4F998190838F5F8093E9018093E8012B
:1004700081E090E0ECCF61E0CE0101960E94550151
:10048000F7CFCF92DF92EF92FF920F931F93CF930C
:10049000DF93FC01C48121E02093C201C093E301FA
:1004A0001092E9011092E8018385682B85EF91E0B5
:1004B0000E941202D091E801D13208F092C00E944D
:1004C000CE006B017C018091BC01811165C082E08E
:1004D0008093BC0181E08093BB018FEF8093BA01D0
:1004E0001092B901D093B801A3ECB1E0E8E9F1E0D2
:1004F00080E0D81385C01092970180919701CC0FAE
:10050000C82BC093970180919601813009F07CC07F
:10051000109296010E94CE006B017C0180919701A0
:100520008093BB008091BE019091BF01A091C0015A
:10053000B091C101892B8A2B8B2B99F00E94CE00A0
:100540000091BE011091BF012091C0013091C10105
:100550006C197D098E099F090617170728073907A7
:10056000E0F18091BC0083FDD9CF85EC8093BC0085
:100570000E94CE006B017C018091BC01823009F4A5
:1005800045C08091BA018F3F61F18091BA018032FC
:1005900041F18091BA0125C08091BE019091BF01C7
:1005A000A091C001B091C101892B8A2B8B2B09F43A
:1005B0008ACF0E94CE000091BE011091BF01209110
:1005C000C0013091C1016C197D098E099F09061780
:1005D00017072807390708F076CF8091BD010E94E0
:1005E0009A011092E9011092E8011092C201DF9184
:1005F000CF911F910F91FF90EF90DF90CF900895D2
:100600009D9191938F5F75CF85EEB0CF8091BE01A4
:100610009091BF01A091C001B091C101892B8A2B9B
:100620008B2B09F4A9CF0E94CE000091BE0110913E
:10063000BF012091C0013091C1016C197D098E0963
:100640009F09061717072807390708F095CFC5CF68
:1006500090E080E008950F931F93CF938C01C62FF5
:100660000E9441026C2F6460C8010E9441026C2FFD
:100670006B7FC8010E94410283EC90E00197F1F783
:10068000CF911F910F9108950F931F93CF93DF93F5
:100690008C01D62FC42F607F642B0E942B0380E136
:1006A000D89FB00111246C2BC801DF91CF911F910D
:1006B0000F910C942B03CF93DF93CDB7DEB7289720
:1006C0000FB6F894DEBF0FBECDBF98E0E0E0F1E0DA
:1006D000DE01119601900D929A95E1F79091090231
:1006E000961708F46FEF262F30E0220F331F41E0FA
:1006F00050E04C0F5D1F240F351FF9016081680F1A
:10070000606840E081E092E028960FB6F894DEBF82
:100710000FBECDBFDF91CF910C94440341E00E9406
:10072000440381E090E0089585ED8093BC008091C2
:10073000BE019091BF01A091C001B091C101079687
:10074000A11DB11D23E0B695A795979587952A958C
:10075000D1F72091BC0024FD03C01092BC01089584
:100760004091BE015091BF016091C0017091C101E3
:10077000452B462B472B69F30097A105B10541F0A6
:100780002AE22A95F1F700C00197A109B109E1CF4A
:100790008091BD010C949A011F920F920FB60F9297
:1007A00011242F933F938F939F93AF93BF93809187
:1007B000ED019091EE01A091EF01B091F001309127
:1007C000EC0123E0230F2D3758F50196A11DB11D33
:1007D0002093EC018093ED019093EE01A093EF0143
:1007E000B093F0018091F1019091F201A091F30199
:1007F000B091F4010196A11DB11D8093F101909378
:10080000F201A093F301B093F401BF91AF919F91D6
:100810008F913F912F910F900FBE0F901F901895C1
:1008200026E8230F0296A11DB11DD2CF1F920F9271
:100830000FB60F9211242F933F934F935F936F93B3
:100840007F938F939F93AF93BF93EF93FF93809189
:10085000B900887F803609F44AC0F0F5883209F47F
:10086000A7C018F5803109F49BC0B8F4882309F4B7
:10087000F9C0883009F494C0FF91EF91BF91AF9116
:100880009F918F917F916F915F914F913F912F91A8
:100890000F900FBE0F901F901895883109F488C0F3
:1008A000803251F78093BA0114C0803409F49DC09E
:1008B00040F48033B9F38833F9F68093BA0185ECBC
:1008C000B0C0803509F485C0883509F496C08834F5
:1008D00099F60E949403D0CF883909F48CC038F57A
:1008E000883729F050F4883611F0803729F683E0F4
:1008F0008093BC011092950157C0883809F47BC0E1
:10090000803919F0803809F0B7CF80919501803295
:1009100008F071C0E091950181E08E0F8093950100
:100920008091BB00F0E0EB58FE4F80833DC0803BE0
:1009300039F0E0F4803A09F479C0883A09F09CCFA4
:1009400084E08093BC011092740110927301E091D5
:10095000E601F091E70109958091730181110FC0C3
:1009600081E0809373011092530109C0803C09F427
:10097000A6CF883C09F4A3CF883B09F07DCFE09156
:10098000740181E08E0F80937401F0E0ED5AFE4F08
:1009900080818093BB00909174018091730129C084
:1009A000809197018093BB0085EC8093BC0064CF5D
:1009B0009091B9018091B801981758F5E091B9016B
:1009C00081E08E0F8093B901F0E0E856FE4F808100
:1009D000E9CFE091B90181E08E0F8093B901809158
:1009E000BB00F0E0E856FE4F80839091B901809102
:1009F000B8019817C8F285E8D8CFE091B90181E035
:100A00008E0F8093B9018091BB00F0E0E856FE4F55
:100A100080838091BB0181115CCF81E0809396013E
:100A200084EA8093BC001092BC0126CF85EC8093B1
:100A3000BC001092BC0180919501803230F4E091AD
:100A40009501F0E0EB58FE4F10826091950170E047
:100A5000E091E401F091E50185E791E009951092BC
:100A600095010ACF1092BA0134CFE5EFF1E013827D
:100A7000128288EE93E0A0E0B0E084839583A683A1
:100A8000B7838CE091E091838083E1E0F2E0138210
:100A900012828EE191E09183808387E2848380E1FA
:100AA000818782E0828713860895789484B5826076
:100AB00084BD84B5816084BD85B5826085BD85B502
:100AC000816085BD80916E00816080936E00109280
:100AD00081008091810082608093810080918100FB
:100AE000816080938100809180008160809380008C
:100AF0008091B10084608093B1008091B0008160EA
:100B00008093B00080917A00846080937A00809115
:100B10007A00826080937A0080917A00816080936D
:100B20007A0080917A00806880937A001092C100E8
:100B30001092EB011092EA011092E9011092E80183
:100B40000E947C0185E291E09093E7018093E601A9
:100B500086E291E09093E5018093E4011092060211
:100B600080910B02823018F098E0909306028093F7
:100B7000090262E370E080E090E00E94F30060917F
:100B80000C0281E092E00E94410268EE73E080E096
:100B900090E00E94F30060E381E092E00E942B036A
:100BA000CBE4D6E4CE010197F1F760E381E092E077
:100BB0000E942B032197F1F760E381E092E00E940D
:100BC0002B0383E592E00197F1F760E281E092E088
:100BD0000E942B0360910602606240E081E092E097
:100BE0000E94440384E08093070240E06CE081E0CF
:100BF00092E00E94440340E061E081E092E00E94C4
:100C00004403CBE3DFE1CE010197F1F782E080936B
:100C1000080240E066E081E092E00E94440340E088
:100C200062E081E092E00E944403CE010197F1F777
:100C300088E080930C0260E081E092E00E94410233
:100C400040E061E081E092E00E944403CE01019720
:100C5000F1F740E062E081E092E00E9444032197D6
:100C6000F1F760E080E00E945B0345E050E066E25F
:100C700071E081E092E00E94270161E084E00E943F
:100C80005B0345E050E06CE271E081E092E00E949D
:100C90002701C0E0D0E02097F1F30E940000FBCFD5
:100CA000EE0FFF1F0590F491E02D0994F894FFCF0B
:100CB0000000400014005400000000001202E50192
:100CC0002803BB01DE01CB01BC01000000008E0344
:100CD00027012803540148454C4C4F00574F524CB4
:020CE0004400CE
:107E0000112484B714BE81FFF0D085E080938100F7
:107E100082E08093C00088E18093C10086E0809377
:107E2000C20080E18093C4008EE0C9D0259A86E02C
:107E300020E33CEF91E0309385002093840096BBD3
:107E4000B09BFECF1D9AA8958150A9F7CC24DD24C4
:107E500088248394B5E0AB2EA1E19A2EF3E0BF2EE7
:107E6000A2D0813461F49FD0082FAFD0023811F036
:107E7000013811F484E001C083E08DD089C08234E0
:107E800011F484E103C0853419F485E0A6D080C0E4
:107E9000853579F488D0E82EFF2485D0082F10E0AE
:107EA000102F00270E291F29000F111F8ED06801E7
:107EB0006FC0863521F484E090D080E0DECF843638
:107EC00009F040C070D06FD0082F6DD080E0C81688
:107ED00080E7D80618F4F601B7BEE895C0E0D1E017
:107EE00062D089930C17E1F7F0E0CF16F0E7DF06D8
:107EF00018F0F601B7BEE89568D007B600FCFDCFD4
:107F0000A601A0E0B1E02C9130E011968C91119780
:107F100090E0982F8827822B932B1296FA010C0160
:107F200087BEE89511244E5F5F4FF1E0A038BF0790
:107F300051F7F601A7BEE89507B600FCFDCF97BE46
:107F4000E89526C08437B1F42ED02DD0F82E2BD052
:107F50003CD0F601EF2C8F010F5F1F4F84911BD097
:107F6000EA94F801C1F70894C11CD11CFA94CF0C13
:107F7000D11C0EC0853739F428D08EE10CD085E9AC
:107F80000AD08FE07ACF813511F488E018D01DD067
:107F900080E101D065CF982F8091C00085FFFCCF94
:107FA0009093C60008958091C00087FFFCCF809118
:107FB000C00084FD01C0A8958091C6000895E0E648
:107FC000F0E098E1908380830895EDDF803219F02E
:107FD00088E0F5DFFFCF84E1DECF1F93182FE3DFCA
:107FE0001150E9F7F2DF1F91089580E0E8DFEE27F6
:047FF000FF270994CA
:027FFE00040479
:00000001FF
