:100000000C9458000C9480000C9480000C94800098
:100010000C9480000C9480000C9480000C94800060
:100020000C9480000C9480000C9480000C94800050
:100030000C9480000C9480000C9480000C94800040
:100040000C9408050C9480000C9478050C945205CF
:100050000C9480000C9480000C9480000C94800020
:100060000C94AA050C9480000000000025002800D4
:100070002B00040404040404040402020202020229
:10008000030303030303010204081020408001025C
:1000900004081020010204081020000000080002DB
:1000A0000100000304070000000000000000C90672
:1000B00011241FBECFEFD8E0DEBFCDBF11E0A0E01E
:1000C000B1E0EEE9F1E102C005900D92AA35B10769
:1000D000D9F722E0AAE5B1E001C01D92A93DB2071F
:1000E000E1F710E0C8E5D0E004C02197FE010E94CE
:1000F000C708C735D107C9F70E9411070C94CD086E
:100100000C94000090E0FC01E656FF4F2491FC01A6
:10011000EA57FF4F3491FC01EE58FF4FE491EE2374
:10012000C9F0222339F0233001F1A8F4213019F16C
:10013000223029F1F0E0EE0FFF1FE859FF4FA591A3
:10014000B4918FB7F894EC91611126C030953E239D
:100150003C938FBF08952730A9F02830C9F0243090
:1001600049F7809180008F7D03C0809180008F7758
:1001700080938000DFCF84B58F7784BDDBCF84B5DB
:100180008F7DFBCF8091B0008F778093B000D2CF6E
:100190008091B0008F7DF9CF3E2BDACF3FB7F89436
:1001A0008091200290912102A0912202B09123021D
:1001B00026B5A89B05C02F3F19F00196A11DB11DC2
:1001C0003FBFBA2FA92F982F8827BC01CD01620FFE
:1001D000711D811D911D42E0660F771F881F991FB9
:1001E0004A95D1F708958F929F92AF92BF92CF9286
:1001F000DF92EF92FF924B015C010E94CE006B01F7
:100200007C010E94CE006C197D098E099F09683E11
:10021000734081059105A8F321E0821A9108A10895
:10022000B10888EEC80E83E0D81EE11CF11C8114D1
:100230009104A104B10429F7FF90EF90DF90CF90D3
:10024000BF90AF909F908F90089508950895AF92BA
:10025000BF92CF92DF92EF92FF920F931F93CF93B3
:10026000DF936C017B018B01040F151FEB015E0115
:10027000AE18BF08C017D10759F06991D601ED91AA
:10028000FC910190F081E02DC6010995892B79F749
:10029000C501DF91CF911F910F91FF90EF90DF90FB
:1002A000CF90BF90AF900895FC01538D448D252FC2
:1002B00030E0842F90E0821B930B541710F0CF9600
:1002C000089501970895FC01918D828D981761F032
:1002D000A28DAE0FBF2FB11D5D968C91928D9F5F49
:1002E0009F73928F90E008958FEF9FEF0895FC0128
:1002F000918D828D981731F0828DE80FF11D858DDB
:1003000090E008958FEF9FEF0895FC01918D228D6D
:10031000892F90E0805C9F4F821B91098F739927F2
:10032000089584E292E00E94850121E0892B09F47E
:1003300020E0822F089580E090E0892B29F00E9430
:10034000910181110C9400000895FC01A48DA80F67
:10035000B92FB11DA35ABF4F2C91848D90E0019607
:100360008F739927848FA689B7892C93A089B18927
:100370008C91837080648C93938D848D981306C0C8
:100380000288F389E02D80818F7D80830895EF922C
:10039000FF920F931F93CF93DF93EC0181E0888F3F
:1003A0009B8D8C8D98131AC0E889F989808185FF0F
:1003B00015C09FB7F894EE89FF896083E889F989B1
:1003C00080818370806480839FBF81E090E0DF91B3
:1003D000CF911F910F91FF90EF900895F62E0B8D06
:1003E00010E00F5F1F4F0F731127E02E8C8D8E11C1
:1003F0000CC00FB607FCFACFE889F989808185FF28
:10040000F5CFCE010E94A501F1CFEB8DEC0FFD2FB2
:10041000F11DE35AFF4FF0829FB7F8940B8FEA89E2
:10042000FB8980818062CFCF682F84E292E00C94B8
:10043000C701CF93DF93EC01888D8823B9F0AA8997
:10044000BB89E889F9898C9185FD03C0808186FD8F
:100450000DC00FB607FCF7CF8C9185FFF2CF8081DE
:1004600085FFEDCFCE010E94A501E9CFDF91CF91AD
:100470000895089520919E01260F3327331F2132BE
:100480003105ECF42091E701FC0190E080E024309C
:1004900069F082E00895A0919E012191AC0142583B
:1004A0005E4FA40FB52FB11D2C930196861798F3BC
:1004B00080919E01680F60939E0180E0089581E025
:1004C00008951092E70181E08093E6011092C10146
:1004D00061E082E10E94820061E083E10E9482008B
:1004E000E9EBF0E080818E7F808380818D7F808347
:1004F00088E48093B80085E48093BC000895CF938E
:10050000DF9391E090937D018823B9F0C091B8000A
:10051000D091BA008091BC008A7B8093BC0060E0DF
:1005200082E10E94820060E083E10E9482000E94DA
:100530006102D093BA00C093B800DF91CF910895C3
:100540000895E091160280911502E81730F4F0E06A
:10055000E35AFE4F808190E008958FEF9FEF08955A
:1005600090911602809115022FEF3FEF981748F4F3
:10057000E92FF0E0E35AFE4F208130E09F5F909337
:100580001602C90108958091150290911602891BE7
:10059000990B0895CF92DF92EF92FF920F931F93E2
:1005A000CF93DF937C01CB018A012091ED012223BF
:1005B00089F0EB016B01C40ED51ECC15DD0569F089
:1005C0006991D701ED91FC910190F081E02DC70177
:1005D0000995F3CF642F0E943A02C801DF91CF91B1
:1005E0001F910F91FF90EF90DF90CF900895CF93E0
:1005F000DF931F92CDB7DEB769832091ED012223EF
:10060000F9F020911302203258F021E030E0FC0193
:100610003383228390E080E00F90DF91CF910895A3
:1006200080911402E82FF0E0E251FE4F998190830F
:100630008F5F809314028093130281E090E0ECCFEF
:1006400061E0CE0101960E943A02F7CFCF92DF928D
:10065000EF92FF920F931F93CF93DF93FC01C4811E
:1006600021E02093ED01C0930E021092140210922B
:1006700013028385682B81EC92E00E94F702D091EF
:100680001302D13208F092C00E94CE006B017C01AF
:100690008091E701811165C082E08093E70181E0EC
:1006A0008093E6018FEF8093E5011092E401D093EF
:1006B000E301AEEEB1E0E3ECF1E080E0D81385C0F9
:1006C0001092C2018091C201CC0FC82BC093C2010D
:1006D0008091C101813009F07CC01092C1010E945B
:1006E000CE006B017C018091C2018093BB008091A0
:1006F000E9019091EA01A091EB01B091EC01892B05
:100700008A2B8B2B99F00E94CE000091E901109169
:10071000EA012091EB013091EC016C197D098E0901
:100720009F090617170728073907E0F18091BC00D9
:1007300083FDD9CF85EC8093BC000E94CE006B0175
:100740007C018091E701823009F445C08091E50188
:100750008F3F61F18091E501803241F18091E501A7
:1007600025C08091E9019091EA01A091EB01B0913F
:10077000EC01892B8A2B8B2B09F48ACF0E94CE00A7
:100780000091E9011091EA012091EB013091EC0117
:100790006C197D098E099F09061717072807390765
:1007A00008F076CF8091E8010E947F021092140237
:1007B000109213021092ED01DF91CF911F910F91D2
:1007C000FF90EF90DF90CF9008959D9191938F5F70
:1007D00075CF85EEB0CF8091E9019091EA01A091AB
:1007E000EB01B091EC01892B8A2B8B2B09F4A9CF5B
:1007F0000E94CE000091E9011091EA012091EB01E5
:100800003091EC016C197D098E099F0906171707B5
:100810002807390708F095CFC5CF90E080E008950C
:10082000FC0101900020E9F73197AF01481B590BFB
:10083000BC018DEC92E00C9427010F931F93CF9392
:100840008C01C62F0E9426036C2F6460C8010E9491
:1008500026036C2F6B7FC8010E94260383EC90E077
:100860000197F1F7CF911F910F9108950F931F9367
:10087000CF93DF938C01D62FC42F607F642B0E940F
:100880001D0480E1D89FB00111246C2BC801DF91B9
:10089000CF911F910F910C941D0440E060E88DEC06
:1008A00092E00C94360441E00E94360481E090E02E
:1008B0000895CF92DF92EF92FF920F931F93CF9301
:1008C000DF93CDB7DEB7A1970FB6F894DEBF0FBEAA
:1008D000CDBF80E390E00E94140284E292E00E9487
:1008E0008501892BD1F384E292E00E946301182FE5
:1008F00080935C0184E292E00E948501892BD1F310
:1009000084E292E00E94630120E0312F282B309393
:100910005B0120935A010E944D0480E391E00E9404
:10092000100420915A0130915B0150E040E019A27F
:100930008E010F5D1F4F8AE0C82ED12CE12CF12CC7
:10094000CA01B901A70196010E94A508605DF801DE
:1009500062938F01211531054105510589F73097C3
:1009600061F001900020E9F73197AF01401B510B76
:10097000B8018DEC92E00E94270187E391E00E948C
:100980001004A1960FB6F894DEBF0FBECDBFDF9165
:10099000CF911F910F91FF90EF90DF90CF9008952E
:1009A00085ED8093BC008091E9019091EA01A091CE
:1009B000EB01B091EC010796A11DB11D23E0B695A6
:1009C000A795979587952A95D1F72091BC0024FD8E
:1009D00003C01092E70108954091E9015091EA01A6
:1009E0006091EB017091EC01452B462B472B69F38D
:1009F0000097A105B10541F02AE22A95F1F700C060
:100A00000197A109B109E1CF8091E8010C947F021F
:100A10001F920F920FB60F9211242F933F938F9333
:100A20009F93AF93BF9380911C0290911D02A09160
:100A30001E02B0911F0230911B0223E0230F2D37BD
:100A400058F50196A11DB11D20931B0280931C0235
:100A500090931D02A0931E02B0931F02809120026A
:100A600090912102A0912202B09123020196A11D32
:100A7000B11D8093200290932102A0932202B09393
:100A80002302BF91AF919F918F913F912F910F9032
:100A90000FBE0F901F90189526E8230F0296A11DF8
:100AA000B11DD2CF1F920F920FB60F9211242F9328
:100AB0003F934F935F936F937F938F939F93AF93E6
:100AC000BF93EF93FF9384E292E00E94A501FF9110
:100AD000EF91BF91AF919F918F917F916F915F91B6
:100AE0004F913F912F910F900FBE0F901F9018952F
:100AF0001F920F920FB60F9211242F938F939F93F3
:100B0000EF93FF93E0913402F09135028081E09100
:100B10003A02F0913B0282FD1BC0908180913D0220
:100B20008F5F8F7320913E02821741F0E0913D026A
:100B3000F0E0EC5DFD4F958F80933D02FF91EF91CA
:100B40009F918F912F910F900FBE0F901F9018952E
:100B50008081F4CF1F920F920FB60F9211242F9322
:100B60003F934F935F936F937F938F939F93AF9335
:100B7000BF93EF93FF938091B900887F803609F48B
:100B80004AC0F0F5883209F4A7C018F5803109F49D
:100B90009BC0B8F4882309F4F9C0883009F494C0E4
:100BA000FF91EF91BF91AF919F918F917F916F9145
:100BB0005F914F913F912F910F900FBE0F901F901B
:100BC0001895883109F488C0803251F78093E50187
:100BD00014C0803409F49DC040F48033B9F38833E5
:100BE000F9F68093E50185ECB0C0803509F485C045
:100BF000883509F496C0883499F60E94D004D0CF85
:100C0000883909F48CC038F5883729F050F48836D3
:100C100011F0803729F683E08093E7011092C0013C
:100C200057C0883809F47BC0803919F0803809F042
:100C3000B7CF8091C001803208F071C0E091C0014F
:100C400081E08E0F8093C0018091BB00F0E0E05600
:100C5000FE4F80833DC0803B39F0E0F4803A09F4D8
:100C600079C0883A09F09CCF84E08093E701109224
:100C70009F0110929E01E0911102F09112020995DC
:100C800080919E0181110FC081E080939E0110929E
:100C90007E0109C0803C09F4A6CF883C09F4A3CFAB
:100CA000883B09F07DCFE0919F0181E08E0F80931A
:100CB0009F01F0E0E258FE4F80818093BB0090914D
:100CC0009F0180919E0129C08091C2018093BB0049
:100CD00085EC8093BC0064CF9091E4018091E301A6
:100CE000981758F5E091E40181E08E0F8093E401BC
:100CF000F0E0ED53FE4F8081E9CFE091E40181E027
:100D00008E0F8093E4018091BB00F0E0ED53FE4F25
:100D100080839091E4018091E3019817C8F285E8FF
:100D2000D8CFE091E40181E08E0F8093E4018091BF
:100D3000BB00F0E0ED53FE4F80838091E60181110E
:100D40005CCF81E08093C10184EA8093BC00109263
:100D5000E70126CF85EC8093BC001092E7018091DB
:100D6000C001803230F4E091C001F0E0E056FE4F67
:100D700010826091C00170E0E0910F02F0911002CA
:100D800080EA91E009951092C0010ACF1092E50126
:100D900034CFE4E2F2E01382128288EE93E0A0E026
:100DA000B0E084839583A683B78324E031E0318368
:100DB000208325EC30E03587248724EC30E037872A
:100DC000268720EC30E0318B208B21EC30E0338B18
:100DD000228B22EC30E0358B248B26EC30E0378BF5
:100DE000268B118E128E138E148EE1ECF2E013829C
:100DF000128284839583A683B78386E191E09183F1
:100E00008083EDECF2E01382128288E291E091831C
:100E1000808387E2848380E1818782E082871386F2
:100E20000895789484B5826084BD84B5816084BD62
:100E300085B5826085BD85B5816085BD80916E0078
:100E4000816080936E0010928100809181008260A9
:100E500080938100809181008160809381008091E6
:100E600080008160809380008091B10084608093D5
:100E7000B1008091B00081608093B00080917A00D1
:100E8000846080937A0080917A00826080937A00F7
:100E900080917A00816080937A0080917A008068E6
:100EA00080937A001092C100E0913402F0913502F3
:100EB00082E08083E0913002F09131021082E09173
:100EC0003202F091330287E6808310923C02E09177
:100ED0003802F091390286E08083E0913602F09189
:100EE0003702808180618083E0913602F091370281
:100EF000808188608083E0913602F09137028081A2
:100F000080688083E0913602F091370280818F7D86
:100F10008083109216021092150210921402109201
:100F200013020E94610285E291E090931202809385
:100F3000110286E291E09093100280930F021092CA
:100F4000D2028091D702823018F098E09093D202BA
:100F50008093D50262E370E080E090E00E94F300AD
:100F60006091D8028DEC92E00E94260368EE73E057
:100F700080E090E00E94F30060E38DEC92E00E943C
:100F80001D04CBE4D6E4CE010197F1F760E38DECCC
:100F900092E00E941D042197F1F760E38DEC92E04E
:100FA0000E941D0483E592E00197F1F760E28DEC69
:100FB00092E00E941D046091D202606240E08DECDC
:100FC00092E00E94360484E08093D30240E06CE01B
:100FD0008DEC92E00E94360440E061E08DEC92E0FE
:100FE0000E943604CBE3DFE1CE010197F1F782E006
:100FF0008093D40240E066E08DEC92E00E943604DB
:1010000040E062E08DEC92E00E943604CE01019750
:10101000F1F788E08093D80260E08DEC92E00E94C6
:10102000260340E061E08DEC92E00E943604CE01A0
:101030000197F1F740E062E08DEC92E00E94360407
:101040002197F1F70E944D0489E391E00E9410047A
:101050008FEF90E00E9414028FEF90E00E94140244
:101060008FEF90E00E941402C0E0D0E090E080E0BA
:101070000E94140281E090E00E94140281E090E05E
:101080000E94140290E080E00E9414020E944D042D
:1010900088E491E00E94100480E190E00E94140234
:1010A00084E292E00E94630184E292E00E94850162
:1010B000892BD1F384E292E00E946301909318029D
:1010C000809317020E945904809117029091180290
:1010D000892B11F390E080E00E94140290E080E000
:1010E0000E94140281E090E00E94140281E090E0EE
:1010F0000E9414020E944D0480E591E00E941004B9
:1011000081E190E00E94140284E292E00E94850155
:10111000892BD1F384E292E00E94630190931A023A
:10112000809319020E9459048091190290911A0229
:10113000019731F3209709F499CF0E9491018823F8
:1011400009F494CF0E94000091CFA1E21A2EAA1BAD
:10115000BB1BFD010DC0AA1FBB1FEE1FFF1FA21767
:10116000B307E407F50720F0A21BB30BE40BF50B64
:10117000661F771F881F991F1A9469F760957095ED
:10118000809590959B01AC01BD01CF010895EE0FB4
:0E119000FF1F0590F491E02D0994F894FFCF15
:10119E0000000000C70127015401190285016301F7
:1011AE00770100000000F702CA020D04A002C3027C
:1011BE00B002A10200000000530427010D04390201
:1011CE00566F6C756D65004C00436F6E6E65637483
:1011DE0020537274616E6B0046696C6C696E6700A9
:0A11EE00456D707479696E670000AA
:00000001FF
